{
  "contractName": "Vaccinator",
  "abi": [
    {
      "inputs": [],
      "stateMutability": "nonpayable",
      "type": "constructor"
    },
    {
      "anonymous": false,
      "inputs": [
        {
          "indexed": false,
          "internalType": "string",
          "name": "why",
          "type": "string"
        }
      ],
      "name": "LogFailure",
      "type": "event"
    },
    {
      "anonymous": false,
      "inputs": [
        {
          "indexed": false,
          "internalType": "string",
          "name": "qrCode",
          "type": "string"
        }
      ],
      "name": "LogSuccess",
      "type": "event"
    },
    {
      "inputs": [],
      "name": "owner",
      "outputs": [
        {
          "internalType": "address",
          "name": "",
          "type": "address"
        }
      ],
      "stateMutability": "view",
      "type": "function",
      "constant": true
    },
    {
      "inputs": [
        {
          "internalType": "address",
          "name": "newVerifier",
          "type": "address"
        }
      ],
      "name": "addVerifier",
      "outputs": [],
      "stateMutability": "payable",
      "type": "function",
      "payable": true
    },
    {
      "inputs": [
        {
          "internalType": "string",
          "name": "name",
          "type": "string"
        },
        {
          "internalType": "string",
          "name": "vaccineSerialNumber",
          "type": "string"
        }
      ],
      "name": "registerVaccinatedPerson",
      "outputs": [
        {
          "internalType": "string",
          "name": "qrCode",
          "type": "string"
        }
      ],
      "stateMutability": "payable",
      "type": "function",
      "payable": true
    },
    {
      "inputs": [
        {
          "internalType": "string",
          "name": "serialNumber",
          "type": "string"
        }
      ],
      "name": "verifyRegisteredPerson",
      "outputs": [
        {
          "internalType": "string",
          "name": "name",
          "type": "string"
        }
      ],
      "stateMutability": "view",
      "type": "function",
      "constant": true
    }
  ],
  "bytecode": "0x60806040523480156200001157600080fd5b50336000806101000a81548173ffffffffffffffffffffffffffffffffffffffff021916908373ffffffffffffffffffffffffffffffffffffffff1602179055506000604051806040016040528073deace1bdaabed5a7d1481e0efb60418a50633cb573ffffffffffffffffffffffffffffffffffffffff1673ffffffffffffffffffffffffffffffffffffffff168152602001735b38da6a701c568545dcfcb03fcb875f56beddc473ffffffffffffffffffffffffffffffffffffffff1673ffffffffffffffffffffffffffffffffffffffff16815250905060006040518060a001604052806040518060400160405280600281526020017f313100000000000000000000000000000000000000000000000000000000000081525081526020016040518060400160405280600281526020017f313200000000000000000000000000000000000000000000000000000000000081525081526020016040518060400160405280600281526020017f313300000000000000000000000000000000000000000000000000000000000081525081526020016040518060400160405280600281526020017f313400000000000000000000000000000000000000000000000000000000000081525081526020016040518060400160405280600281526020017f3135000000000000000000000000000000000000000000000000000000000000815250815250905060005b6002811015620002b357600180600085846002811062000247576200024662000416565b5b602002015173ffffffffffffffffffffffffffffffffffffffff1673ffffffffffffffffffffffffffffffffffffffff16815260200190815260200160002060006101000a81548160ff0219169083151502179055508080620002aa906200047e565b91505062000222565b5060005b60058110156200035d576040518060400160405280600181526020017f2d0000000000000000000000000000000000000000000000000000000000000081525060028383600581106200030f576200030e62000416565b5b60200201516040516200032391906200054f565b908152602001604051809103902090805190602001906200034692919062000366565b50808062000354906200047e565b915050620002b7565b505050620005cd565b828054620003749062000597565b90600052602060002090601f016020900481019282620003985760008555620003e4565b82601f10620003b357805160ff1916838001178555620003e4565b82800160010185558215620003e4579182015b82811115620003e3578251825591602001919060010190620003c6565b5b509050620003f39190620003f7565b5090565b5b8082111562000412576000816000905550600101620003f8565b5090565b7f4e487b7100000000000000000000000000000000000000000000000000000000600052603260045260246000fd5b7f4e487b7100000000000000000000000000000000000000000000000000000000600052601160045260246000fd5b6000819050919050565b60006200048b8262000474565b91507fffffffffffffffffffffffffffffffffffffffffffffffffffffffffffffffff821415620004c157620004c062000445565b5b600182019050919050565b600081519050919050565b600081905092915050565b60005b8381101562000502578082015181840152602081019050620004e5565b8381111562000512576000848401525b50505050565b60006200052582620004cc565b620005318185620004d7565b935062000543818560208601620004e2565b80840191505092915050565b60006200055d828462000518565b915081905092915050565b7f4e487b7100000000000000000000000000000000000000000000000000000000600052602260045260246000fd5b60006002820490506001821680620005b057607f821691505b60208210811415620005c757620005c662000568565b5b50919050565b610bf180620005dd6000396000f3fe60806040526004361061003f5760003560e01c80638da5cb5b146100445780639000b3d61461006f5780639b9fa4721461008b578063e74f853a146100c8575b600080fd5b34801561005057600080fd5b506100596100f8565b604051610066919061053f565b60405180910390f35b6100896004803603810190610084919061059a565b61011c565b005b34801561009757600080fd5b506100b260048036038101906100ad919061070d565b610204565b6040516100bf91906107de565b60405180910390f35b6100e260048036038101906100dd9190610800565b61030c565b6040516100ef91906107de565b60405180910390f35b60008054906101000a900473ffffffffffffffffffffffffffffffffffffffff1681565b60008054906101000a900473ffffffffffffffffffffffffffffffffffffffff1673ffffffffffffffffffffffffffffffffffffffff163373ffffffffffffffffffffffffffffffffffffffff16146101aa576040517f08c379a00000000000000000000000000000000000000000000000000000000081526004016101a1906108ea565b60405180910390fd5b60018060008373ffffffffffffffffffffffffffffffffffffffff1673ffffffffffffffffffffffffffffffffffffffff16815260200190815260200160002060006101000a81548160ff02191690831515021790555050565b606033600160008273ffffffffffffffffffffffffffffffffffffffff1673ffffffffffffffffffffffffffffffffffffffff16815260200190815260200160002060009054906101000a900460ff1661025d57600080fd5b60028360405161026d9190610946565b908152602001604051809103902080546102869061098c565b80601f01602080910402602001604051908101604052809291908181526020018280546102b29061098c565b80156102ff5780601f106102d4576101008083540402835291602001916102ff565b820191906000526020600020905b8154815290600101906020018083116102e257829003601f168201915b5050505050915050919050565b606060405160200161031d90610a0a565b604051602081830303815290604052805190602001206002836040516103439190610946565b90815260200160405180910390206040516020016103619190610abf565b60405160208183030381529060405280519060200120146103b6577fa2db52a45d71264723caeac03c235d51bb30cff5e1ac71c97a5842ec94fbb6af6040516103a990610b2d565b60405180910390a161042c565b6103bf82610432565b9050826002836040516103d29190610946565b908152602001604051809103902090805190602001906103f392919061045b565b507f1782a041fb29483cfabfb7e11bda92548c35e390b00acc69c45cf4522b1af0f68160405161042391906107de565b60405180910390a15b92915050565b6060816040516020016104459190610b99565b6040516020818303038152906040529050919050565b8280546104679061098c565b90600052602060002090601f01602090048101928261048957600085556104d0565b82601f106104a257805160ff19168380011785556104d0565b828001600101855582156104d0579182015b828111156104cf5782518255916020019190600101906104b4565b5b5090506104dd91906104e1565b5090565b5b808211156104fa5760008160009055506001016104e2565b5090565b600073ffffffffffffffffffffffffffffffffffffffff82169050919050565b6000610529826104fe565b9050919050565b6105398161051e565b82525050565b60006020820190506105546000830184610530565b92915050565b6000604051905090565b600080fd5b600080fd5b6105778161051e565b811461058257600080fd5b50565b6000813590506105948161056e565b92915050565b6000602082840312156105b0576105af610564565b5b60006105be84828501610585565b91505092915050565b600080fd5b600080fd5b6000601f19601f8301169050919050565b7f4e487b7100000000000000000000000000000000000000000000000000000000600052604160045260246000fd5b61061a826105d1565b810181811067ffffffffffffffff82111715610639576106386105e2565b5b80604052505050565b600061064c61055a565b90506106588282610611565b919050565b600067ffffffffffffffff821115610678576106776105e2565b5b610681826105d1565b9050602081019050919050565b82818337600083830152505050565b60006106b06106ab8461065d565b610642565b9050828152602081018484840111156106cc576106cb6105cc565b5b6106d784828561068e565b509392505050565b600082601f8301126106f4576106f36105c7565b5b813561070484826020860161069d565b91505092915050565b60006020828403121561072357610722610564565b5b600082013567ffffffffffffffff81111561074157610740610569565b5b61074d848285016106df565b91505092915050565b600081519050919050565b600082825260208201905092915050565b60005b83811015610790578082015181840152602081019050610775565b8381111561079f576000848401525b50505050565b60006107b082610756565b6107ba8185610761565b93506107ca818560208601610772565b6107d3816105d1565b840191505092915050565b600060208201905081810360008301526107f881846107a5565b905092915050565b6000806040838503121561081757610816610564565b5b600083013567ffffffffffffffff81111561083557610834610569565b5b610841858286016106df565b925050602083013567ffffffffffffffff81111561086257610861610569565b5b61086e858286016106df565b9150509250929050565b7f4f776e61626c653a20596f7520617265206e6f7420746865206f776e65722c2060008201527f4279652e00000000000000000000000000000000000000000000000000000000602082015250565b60006108d4602483610761565b91506108df82610878565b604082019050919050565b60006020820190508181036000830152610903816108c7565b9050919050565b600081905092915050565b600061092082610756565b61092a818561090a565b935061093a818560208601610772565b80840191505092915050565b60006109528284610915565b915081905092915050565b7f4e487b7100000000000000000000000000000000000000000000000000000000600052602260045260246000fd5b600060028204905060018216806109a457607f821691505b602082108114156109b8576109b761095d565b5b50919050565b7f2d00000000000000000000000000000000000000000000000000000000000000600082015250565b60006109f4600183610761565b91506109ff826109be565b602082019050919050565b60006020820190508181036000830152610a23816109e7565b9050919050565b60008190508160005260206000209050919050565b60008154610a4c8161098c565b610a568186610761565b94506001821660008114610a715760018114610a8357610ab6565b60ff1983168652602086019350610ab6565b610a8c85610a2a565b60005b83811015610aae57815481890152600182019150602081019050610a8f565b808801955050505b50505092915050565b60006020820190508181036000830152610ad98184610a3f565b905092915050565b7f6e6f74206c656769742073657269616c206e756d626572210000000000000000600082015250565b6000610b17601883610761565b9150610b2282610ae1565b602082019050919050565b60006020820190508181036000830152610b4681610b0a565b9050919050565b7f7061736f6b000000000000000000000000000000000000000000000000000000600082015250565b6000610b8360058361090a565b9150610b8e82610b4d565b600582019050919050565b6000610ba58284610915565b9150610bb082610b76565b91508190509291505056fea264697066735822122017446f5d33674674829017a868cde0183d4888e505167be59311ef532db5988764736f6c634300080b0033",
  "immutableReferences": {},
  "source": "// SPDX-License-Identifier: GPL-3.0\npragma solidity 0.8.11;\n\nimport \"./Ownable.sol\";\n\n/// @title Validator for vaccination certficate\n/// @author Orestis Gartaganis\n/// @notice You can use this contract for only the most basic vaccination registration \n///         and verification. No encryption has been used and lots of them need improvment \ncontract Vaccinator is Ownable{\n\n    /// There are a few addresses that are allowed to verify a QR code\n    mapping(address => bool) verifiers;\n\n    /// The single source of truth is the vaccine serial number. It's unique and has to be contained in \n    /// the Health Organization's database. Somehow.\n    mapping(string => string) vaccineSerialNumbersAndNamesMapping;\n\n    event LogFailure(string why);\n    event LogSuccess(string qrCode);\n\n    /// constructor(address[] memory _verifiers, string[] memory _legitVaccineSerialNumbers){\n    constructor(){\n        address[2] memory _verifiers = [0xdeACE1bdAAbED5A7D1481e0EfB60418A50633CB5, 0x5B38Da6a701c568545dCfcB03FcB875f56beddC4];\n        string[5] memory _legitVaccineSerialNumbers = [\"11\", \"12\", \"13\", \"14\", \"15\"];\n\n        /// All the initial addresses should be verifiers\n        for(uint i = 0; i < _verifiers.length; i++) {\n            verifiers[_verifiers[i]] = true;\n        }\n\n        /// All the initial vaccination serial numbers are legit and are initialized to \"-\" name\n        for(uint i = 0; i < _legitVaccineSerialNumbers.length; i++) {\n            vaccineSerialNumbersAndNamesMapping[_legitVaccineSerialNumbers[i]] = \"-\";\n        }\n    }\n\n    /// Our super-users; checking that only super users can verify\n    /// @param _verifierAddress the attempting verifier address\n    /// @dev this will block anyone even starting a transaction if they can't,\n    ///      saving them from getting charged\n    modifier onlyVerifiers(address _verifierAddress) {\n        require(verifiers[_verifierAddress]);\n        _;\n    }\n\n    /// @notice Let's think about it coz should the owner have to pay to register new verifiers?\n    function addVerifier(address newVerifier) public onlyOwner payable {\n        verifiers[newVerifier] = true;\n    }\n\n    /// Register Vaccinated Person\n    /// @param name Their name\n    /// @param vaccineSerialNumber A legit vaccine serial number\n    function registerVaccinatedPerson(string memory name, string memory vaccineSerialNumber) public payable returns (string memory qrCode){\n        /**\n        * Our legit vaccine serial numbers; checking that only these serial numbers are acceptable\n        * They must: \n        *  a) be in the list\n        *  b) be so far unclaimed          \n        */\n        if (keccak256(abi.encode(vaccineSerialNumbersAndNamesMapping[vaccineSerialNumber])) != keccak256(abi.encode('-'))) {\n            emit LogFailure(\"not legit serial number!\");\n        } else {\n            /// QRCode string is produced and returned\n            qrCode = produceQRCodeText(vaccineSerialNumber);\n\n            /// The inputted name is corresponded to the vaccineSerialNumber\n            vaccineSerialNumbersAndNamesMapping[vaccineSerialNumber] = name;\n            emit LogSuccess(qrCode);\n        }\n    }\n\n    /// @param serialNumber The incoming serialNumber to check against our db\n    /// Somehow we need to verify that this person is registered\n    function verifyRegisteredPerson(string memory serialNumber) public view onlyVerifiers(msg.sender) returns (string memory name){\n        /// // decode qrCode and produce the serialNumber!\n        /// @dev this solution unfortunately charges us so if we want to have this \n        ///      function \"view\", we cannot do complicated stuff here.\n        /// string memory serialNumber = getSlice(0, 1, qrCode);\n\n        /// Let's return the name that corresponds and we check in the frontend whether it's a name or a gap\n        name = vaccineSerialNumbersAndNamesMapping[serialNumber];\n    }\n\n    /// @notice We should come up with a better strategy for encryption\n    ///         Currently we're adding a word here and then decrypting it in the frontend\n    ///         But we can do better in a real-world scenario\n    function produceQRCodeText(string memory serialNumber) pure private returns(string memory qrCodeString) {\n        qrCodeString = string(abi.encodePacked(serialNumber, \"pasok\"));\n    }\n\n    // function getSlice(uint256 begin, uint256 end, string memory text) payable public returns (string memory) {\n    //     bytes memory a = new bytes(end-begin+1);\n    //     for(uint i=0;i<=end-begin;i++){\n    //         a[i] = bytes(text)[i+begin-1];\n    //     }\n    //     return string(a);    \n    // }\n\n    function string_tobytes(string memory s) pure private returns (bytes memory){\n        bytes memory b3 = bytes(s);\n        return b3;\n    }\n}",
  "sourcePath": "/Users/orestis/SolidityProjects/blockchain-developer-bootcamp-final-project/contracts/Vaccinator.sol",
  "compiler": {
    "name": "solc",
    "version": "0.8.11+commit.d7f03943.Emscripten.clang"
  },
  "schemaVersion": "3.4.4",
  "updatedAt": "2022-01-09T23:22:46.371Z",
  "networkType": "ethereum",
  "devdoc": {
    "author": "Orestis Gartaganis",
    "kind": "dev",
    "methods": {
      "registerVaccinatedPerson(string,string)": {
        "params": {
          "name": "Their name",
          "vaccineSerialNumber": "A legit vaccine serial number"
        }
      },
      "verifyRegisteredPerson(string)": {
        "params": {
          "serialNumber": "The incoming serialNumber to check against our db Somehow we need to verify that this person is registered"
        }
      }
    },
    "title": "Validator for vaccination certficate",
    "version": 1
  },
  "userdoc": {
    "kind": "user",
    "methods": {
      "addVerifier(address)": {
        "notice": "Let's think about it coz should the owner have to pay to register new verifiers?"
      },
      "constructor": {
        "notice": "constructor(address[] memory _verifiers, string[] memory _legitVaccineSerialNumbers){"
      },
      "registerVaccinatedPerson(string,string)": {
        "notice": "Register Vaccinated Person"
      }
    },
    "notice": "You can use this contract for only the most basic vaccination registration          and verification. No encryption has been used and lots of them need improvment ",
    "version": 1
  }
}